:020000040000FA
:08000000803102288731FD2F39
:100F42004F0196019701980199019A019B010800AE
:100F52008731A12787318731C22787318731B3276C
:100F620087310800103051018D008F019101053049
:100F720093009201BC2F101CBF2FC02FBC2FC12F7A
:100F820008004001960197019801FF309100FC3062
:100F92009200FF309300FF307E01CE00FC30C30090
:100FA200FF30B800E501C401B901CF01BA01C501A2
:100FB200D00108008731A9278731E02FE02F0310E5
:100FC2004001171C03140318E72FEA2F40011714DE
:100FD200EC2F40011710ED2F2930F1009630F00070
:100FE2007F30890BF22FF00BF22FF10BF22F000062
:0E0FF200E02FE02F8031022840018731DB2FF5
:020000040001F9
:0A000E009C3FFF3FFF3FFF3FFF3F15
:00000001FF
